:020000040000FA
:10000000850186018701880189018316031788010C
:100010008901031387018312061C0C281720061878
:100020000F281720F03087001F20870E1428033078
:10003000E4002F30E5001930E60037200800F330E7
:10004000E1007530E2002C200800000000000000F4
:100050000000E00B252808006208E3000000000013
:1000600000000000E30B2E28E10B2C280800660896
:10007000E7006508E8000000000000000000E80B51
:0C0080003B28E70B3928E40B3728080068
:04008C000034003408
:02400E00E423A9
:02401000FF3F70
:00000001FF
