:020000040000FA
:10000000850186018701880189018316031788010C
:100010008901031387018501861306138612831253
:100020000A30C500061C12286A22061815286A2202
:100030000808A1008700061C1B286A2206181E2833
:100040006A220808A200870021083C3C031C4528BE
:10005000292806172F30E1002D30E20090222F30A2
:10006000E1002D30E2009022061A38280613A82855
:1000700006170130E1001B30E20090220613013028
:10008000E1002930E200902234282108783C031C4A
:1000900066284A2806172F30E1002D30E200902212
:1000A0002F30E1002D30E2009022861959280613E6
:1000B000A82806170D30E1000130E2009022061357
:1000C0000230E1001830E200902255282108B43CAB
:1000D000031C87286B2806172F30E1002D30E20023
:1000E00090222F30E1002D30E200902206197A286C
:1000F0000613A82806170D30E1000130E200902217
:1001000006130230E1001830E20090227628210820
:10011000FF3C031CA8288C2806172F30E1002D3047
:10012000E20090222F30E1002D30E200902286186C
:100130009B280613A82806170D30E1000130E200C5
:10014000902206130230E1001830E2009022972836
:100150002208193C031CAF28AD288612AD282208BE
:10016000323C031CC728B42886160730E4000F3041
:10017000E5000130E6009B2286120230E4003B30AD
:10018000E5001730E6009B22C50BB428752922082C
:100190004B3C031CDB28CC2886163830E1000230AB
:1001A000E200902286120D30E100CA30E200902277
:1001B000C50BCC2875292208643C031CF128E028D3
:1001C00086160130E100B130E20090228612023042
:1001D000E4005F30E5000E30E6009B22C50BE0280E
:1001E000752922087D3C031C0729F6288616253030
:1001F000E1000530E200902286120130E400473031
:10020000E5002530E6009B22C50BF628752922085B
:10021000963C031C1F290C2986160130E4001B3074
:10022000E5000230E6009B2286120130E4001B301C
:10023000E5000230E6009B22C50B0C297529220837
:10024000AF3C031C1F29242986160130E40001302D
:10025000E500A730E6009B2286121B30E1005E30ED
:10026000E2009022C50B242975292208C83C031CF2
:1002700035293A2986160E30E1001530E200902229
:1002800086128D30E1001230E2009022C50B3A292F
:1002900075292208E13C031C5D294E298616493048
:1002A000E1000430E200902286122430E100463062
:1002B000E2009022C50B4E2975292208FF3C031C41
:1002C0007529622986160130E4001B30E5000230F2
:1002D000E6009B2286120130E4001B30E50002306C
:1002E000E6009B22C50B62297529061C75296A2226
:1002F000061878296A22861387011A2287010310BB
:1003000021082207A400031C87290F22861724082E
:100310008700061C89296A2206188C296A228613FE
:1003200087011A22870122082102A500031C9A29AD
:1003300087009F290F222508003C86179829061C54
:100340009F296A220618A2296A22861387011A2287
:1003500087012108A3002208A400A30BB4290318D5
:10036000B62924088700B929A407AD2986170F22CA
:10037000B129061CB9296A220618BC296A228613EB
:1003800087011A22A40103102108A30022080319DF
:10039000D929A3020319D529031CD029A40AC929E4
:1003A00086170F2224088700DC29A40A2408870066
:1003B000DC29FF3087008617061CDC296A22061814
:1003C000DF296A220808A7008700061CE5296A229F
:1003D0000618E8296A220808A8008700061CEE29EA
:1003E0006A220618F1296A220808A9008700061C5B
:1003F000F7296A220618FA296A22FF30870027089F
:10040000E6002808E5002908E4009B228701270868
:10041000E6002808E5002908E4009B22FD290830B1
:10042000A300FF3087007A2287097A22A30B142ABF
:10043000861708000710722207147222071087140B
:1004400072228710071572220711871572228711F1
:100450000716722207128716722287120717722256
:10046000071387177222871307177222071387163D
:1004700072228712071672220712871572228711BD
:10048000071572220711871472220714871072222F
:100490000710722207147222871472220715722223
:1004A0008715722207167222871672220717722288
:1004B0008717722287137222071372228712722201
:1004C000071272228711722207117222871072227C
:1004D000071008000330E4002F30E5001930E60073
:1004E00008009B220430E4007C30E5005630E60032
:1004F0009B2208004F30E4000330E500FD30E600A9
:100500009B2208000D30E1000130E200902208003B
:10051000882A0000000000000000E00B892A080083
:100520006208E3000000000000000000E30B922AD4
:10053000E10B902A08006608E7006508E800000063
:10054000000000000000E80B9F2AE70B9D2AE40B47
:040550009B2A0800DA
:04055400003400343B
:02400E00E423A9
:02401000FF3F70
:00000001FF
