:020000040000FA
:10000000850186018701880189018316031788010C
:1000100089010313870186138312A001A101A201A4
:10002000A301061C112808088700A000A300861C55
:100030001F280808A2002008080787003928061D85
:100040002B280808A2002002031C28288700392832
:10005000003C86172628861D17280808A200A10044
:10006000A30B372803188617210887003928A10712
:100070003028061C3928A40103102008A3002208F8
:1000800003195028A100A30203194C28031C4A2875
:10009000A40A432886175328A40A24088700532853
:0800A000FF308700861753288A
:0400A80000340034EC
:02400E00E423A9
:02401000FF3F70
:00000001FF
