:020000040000FA
:10000000850186018701880189018316031788010C
:1000100089010313870186108312A001061C16288C
:100020003720061811283720A00A1628861C2028F9
:100030003720861819283720A00320088700202899
:10004000061D0E2837200619232837200808A0008F
:1000500087000E2886150E30E1001530E20047209B
:1000600086128D30E1001230E20047202A2803304A
:10007000E4002F30E5001930E600080052203F2848
:100080000000000000000000E00B402808006208AB
:10009000E3000000000000000000E30B4928E10B32
:1000A000472808006608E7006508E800000000002F
:1000B00000000000E80B5628E70B5428E40B5228F8
:0200C000080036
:0400C20000340034D2
:02400E00E423A9
:02401000FF3F70
:00000001FF
