:020000040000FA
:10000000850186018701880189018316031788010C
:1000100089010313870186108312A001A028061C02
:1000200019280921061812280921A00A200887008A
:100030001928861C2328092186181C280921A003B9
:10004000200887002328061D0F28092106192628C5
:1000500009210808A00087000F282008013C031D83
:1000600039282008023C031D48282008033C031DB2
:10007000572886150330E4000130E5000130E60022
:10008000242186114630E1000130E200192139288F
:1000900086150130E4000030E5001830E600242128
:1000A00086114130E1000130E2001921482886150F
:1000B0000330E1000730E20019218611A430E1008D
:1000C0000030E2001921572886150130E400013084
:1000D000E5001330E600242186119730E10000305E
:1000E000E2001921642886150F30E1000230E20099
:1000F000192186118930E1000030E20019217328AE
:1001000086150130E1002E30E20019218611013000
:10011000E4004530E5000130E60024218028861502
:100120000130E4000330E5000F30E60024218611A1
:100130000130E4003D30E5000130E60024218F2845
:1001400086150130E4003D30E5000130E600242151
:1001500086110130E4000330E5000F30E600242171
:10016000A02886150130E4004530E5000130E600A6
:10017000242186110130E1002E30E2001921B1283E
:1001800086158930E1000030E200192186110F3018
:10019000E1000230E2001921C02886159730E10005
:1001A0000030E200192186110130E4000130E50041
:1001B0001330E6002421CD2886150130E4000030FC
:1001C000E500A330E600242186110330E10007306A
:1001D000E2001921DC2886154130E1000130E200FF
:1001E000192186111A30E1000030E2001921EB28B4
:1001F00086154630E1000130E200192186110330F6
:10020000E4000130E5000130E6002421F8288615DD
:1002100007290330E4002F30E5001930E60008001C
:10022000242111290000000000000000E00B122929
:1002300008006208E3000000000000000000E30B7B
:100240001B29E10B192908006608E7006508E8008A
:100250000000000000000000E80B2829E70B262919
:06026000E40B2429080054
:04026600003400342C
:02400E00E423A9
:02401000FF3F70
:00000001FF
