:020000040000FA
:10000000850186018701880189018316031788010C
:10001000890103138701861083128614061C0E289B
:10002000D62106181128D6216A30A0000830870092
:10003000C6210C308700C62104308700C621063057
:100040008700C62102308700C62103308700C62101
:1000500001308700C62109308700A00B16288701D0
:10006000BE21A10B3428DE29BE213128310822020D
:10007000B100031993283108031842283108003CC5
:10008000B1005E2808308700C6210C308700C621E9
:1000900004308700C62106308700C6210230870061
:1000A000C62103308700C62101308700C6210930F0
:1000B0008700B10B42288701BE21932809308700B1
:1000C000C62101308700C62103308700C6210230D7
:1000D0008700C62106308700C62104308700C6216C
:1000E0000C308700C62108308700C6210930870000
:1000F000C62101308700C62103308700C6210230A7
:100100008700C62106308700C62104308700C6213B
:100110000C308700C62108308700C621B10B5E284D
:100120008701BE219328A30B96289828BE219328E7
:1001300032082402B2000319F52832080318A42853
:100140003208003CB200C02808308700C6210C30BD
:100150008700C62104308700C62106308700C621EB
:1001600002308700C62103308700C6210130870096
:10017000C62109308700B20BA4288701BE21F528CB
:1001800009308700C62101308700C621033087006F
:10019000C62102308700C62106308700C621043000
:1001A0008700C6210C308700C62108308700C62191
:1001B00009308700C62101308700C621033087003F
:1001C000C62102308700C62106308700C6210430D0
:1001D0008700C6210C308700C62108308700C62161
:1001E000B20BC0288701BE21F528A50BF828FA28F4
:1001F000BE21F52833082602B30003195729330816
:10020000031806293308003CB30022290830870070
:10021000C6210C308700C62104308700C621063075
:100220008700C62102308700C62103308700C6211F
:1002300001308700C62109308700B30B06298701EA
:10024000BE21572909308700C62101308700C62109
:1002500003308700C62102308700C62106308700A0
:10026000C62104308700C6210C308700C621083023
:100270008700C62109308700C62101308700C621CA
:1002800003308700C62102308700C6210630870070
:10029000C62104308700C6210C308700C6210830F3
:1002A0008700C621B30B22298701BE215729A70B3E
:1002B0005A295C29BE21572934082802B4000319A1
:1002C000B9293408031868293408003CB40084298B
:1002D00008308700C6210C308700C6210430870013
:1002E000C62106308700C62102308700C6210330B0
:1002F0008700C62101308700C62109308700B40B72
:1003000068298701BE21B92909308700C62101303B
:100310008700C62103308700C62102308700C6212E
:1003200006308700C62104308700C6210C308700C4
:10033000C62108308700C62109308700C621013058
:100340008700C62103308700C62102308700C621FE
:1003500006308700C62104308700C6210C30870094
:10036000C62108308700C621B40B84298701BE212D
:10037000B929A90BBC290D28BE21B9294F30E400A9
:100380000A30E500AB30E600F12108000530E4005A
:100390000130E500A330E600F12108001530E4004B
:1003A0000B30E5000730E600F12108004330E4009F
:1003B0001130E5000330E600F1210800DE290000DD
:1003C000000000000000E00BDF2908006208E300E5
:1003D0000000000000000000E30BE829E10BE62923
:1003E00008006608E7006508E8000000000000005B
:1003F0000000E80BF529E70BF329E40BF1290800CD
:040400000034003490
:02400E00E423A9
:02401000FF3F70
:00000001FF
